:100000000C949C090C94E3090C94E3090C94E30907
:100010000C94E3090C94E3090C94E3090C94E309B0
:100020000C94E3090C94E3090C943E240C941125E0
:100030000C944B1B0C94E3090C94E3090C94E30916
:100040000C94E3090C94E3090C94E3090C94E30980
:100050000C94E3090C94AC1B0C94E3090C94E30995
:100060000C94E3090C94E3090C94E3090C94E30960
:100070000C94E3090C94E3090C94E3090C94E30950
:100080000C94E3090C94E3090C94E3090C94E30940
:100090000C94E3090C94E3090C94E3090C94E30930
:1000A0000C94E3090C94E3090C94E3092600250061
:1000B00000003800240007000B000A0016000400AE
:1000C0000000090000000000000020001F000000E8
:1000D0002D021E002800110010000500190000006C
:1000E000060000000000000023002200000034028F
:1000F00021000F000D000E001B001D00000000007D
:100100000000000000002E00370000002E02270033
:100110007600360037002C00E200000000000000EE
:10012000000000005100500000004F004C001F0272
:10013000210220021E022B0000000000000000002F
:100140000000430041000000520042002A00260245
:10015000270224022302000000000000000000002B
:1001600012000C0000001300180008001C0017000B
:100170001A001400000015000000000000003F00FD
:100180003E00000040003D003A003C003B003100D2
:100190002900000000000000000000000000000036
:1001A000E700000000000000000000000000000068
:1001B000E1000000E000E10001512F0230000000EA
:1001C00030022F00010001000100010001000000C9
:1001D00001000000000000003802370200002D027C
:1001E00036020100010001000100010000000100D1
:1001F000000000000000340033020000340233002D
:1002000001000100010001000100000000000000E9
:1002100000000000350235000000220239004800CD
:1002200001000100010001000000000000000000CA
:1002300000004E004A0000004D00490045006900E2
:100240006800440001000000000000000000000001
:100250000100010000004B00010001006C006D0076
:100260006B006A00000000000000000000000100B8
:100270000100000001000100010001000100010077
:10028000010000000100000000000000010001006A
:100290000000010001000100010001003102010025
:1002A000000000000000000000000000000001004D
:1002B000000000000000000000000000000001003D
:1002C0000000010001000100010001000000010028
:1002D0000100010001000100010001000000010017
:1002E000000000000000010001000000010001000A
:1002F00001000100010001000100000001000000F8
:1003000000000000010001000000010001000100E8
:1003100001000100010001000000000000000000D9
:1003200000000100010000000100010001000100C7
:1003300001000100010000000000000000000000BA
:1003400001000100000001000100010001000100A6
:10035000010001000000000000000000000001009A
:100360000100000001000100010001000100010086
:10037000010000000000000000000000010001007A
:100380000000010001000100010001000100010066
:10039000000001000000000000000100010000005A
:1003A0000100010001000100010001000100000046
:1003B000000000000000000000000000010000003C
:1003C000000000000000000000000000010000002C
:1003D0000100010001000100010000000100010016
:1003E0000100010001000100010000000100000007
:1003F00000000000010001000000010001000100F8
:1004000001000100010001000000010000000000E7
:1004100000000100010000000100010001000100D6
:1004200001000100010000000000000000000000C9
:1004300001000100000001000100010001000100B5
:1004400001000100000000000000000000000100A9
:100450000100000001000100010001000100010095
:100460000100000000000000000000000100010089
:100470000000010001000100010001000100010075
:10048000000000000000000000000100010000006A
:100490000100010001000100010001000100000055
:1004A0000100000000000000010001000000010048
:1004B0000100010001000100010001000000000036
:1004C000000000000000000000000100000000002B
:1004D000000000000000000000000100000001001A
:1004E0000100010001000100000001000100010005
:1004F00001000100010001000000010000000000F7
:1005000000000100010000000100010001000100E5
:1005100001000100010000000100000000000000D7
:1005200001000100000001000100010001000100C4
:1005300001000100000000000000000000000100B8
:1005400001000000010001000100010001000100A4
:100550000100000000000000000000000100010098
:100560000000010001000100010001000100010084
:100570000000000000000000000001000100000079
:100580000100010001000100010001000100000064
:100590000000000000000000010001000000010058
:1005A0000100010001000100010001000000010044
:1005B0000000000000000100010000000100010037
:1005C0000100010001000100010000000000000026
:1005D000000000000000000001000000000000001A
:1005E0000000000000000000010000000100010008
:1005F00001000100010000000100010001000100F4
:1006000001000100010000000100000000000000E6
:1006100001000100000001000100010001000100D3
:1006200001000100000001000000000000000100C6
:1006300001000000010001000100010001000100B3
:1006400001000000000000000000000001000100A7
:100650000000010001000100010001000100010093
:100660000000000000000000000001000100000088
:100670000100010001000100010001000100000073
:100680000000000000000000010001000000010067
:100690000100010001000100010001000000000054
:1006A0000000000000000100010000000100010046
:1006B0000100010001000100010000000100000034
:1006C0000000000001000100000001000100010025
:1006D0000100010001000100000000000000000016
:1006E0000000000000000100000000000000000009
:1006F00000000000000001000000010001000100F6
:1007000001000100000001000100010001000100E2
:1007100001000100000001000000000000000100D5
:1007200001000000010001000100010001000100C2
:1007300001000000010000000000000001000100B5
:1007400000000100010001000100010001000100A2
:100750000000000000000000000001000100000097
:100760000100010001000100010001000100000082
:100770000000000000000000010001000000010076
:100780000100010001000100010001000000000063
:100790000000000000000100010000000100010055
:1007A0000100010001000100010000000000000044
:1007B0000000000001000100000001000100010034
:1007C0000100010001000100000001000000000024
:1007D0000000010001000000010001000100010013
:1007E0000100010001000000000000000000000006
:1007F00000000000010000000000000000000000F8
:1008000000000000010000000100010001000100E3
:1008100001000000010001000100010001000100D1
:1008200001000000010000000000000001000100C4
:1008300000000100010001000100010001000100B1
:1008400000000100000000000000010001000000A5
:100850000100010001000100010001000100000091
:100860000000000000000000010001000000010085
:100870000100010001000100010001000000000072
:100880000000000000000100010000000100010064
:100890000100010001000100010000000000000053
:1008A0000000000001000100000001000100010043
:1008B0000100010001000100000000000000000034
:1008C0000000010001000000010001000100010022
:1008D0000100010001000000010000000000000014
:1008E0000100010000000100010001000100010001
:1008F00001000100000000000000000000000000F6
:1009000000000100000000000000000000000000E6
:1009100000000100000001000100010001000100D1
:1009200000000100010001000100010001000100C0
:1009300000000100000000000000010001000000B4
:1009400001000100010001000100010001000000A0
:100950000100000000000000010001000000010093
:100960000100010001000100010001000000000081
:100970000000000000000100010000000100010073
:100980000100010001000100010000000000000062
:100990000000000001000100000001000100010052
:1009A0000100010001000100000000000000000043
:1009B0000000010001000000010001000100010031
:1009C0000100010001000000000000000000000024
:1009D0000100010000000100010001000100010010
:1009E0000100010000000100000000000000010003
:1009F00001000000010001000100010001000100F0
:100A000001000000000000000000000000000000E5
:100A100001000000000000000000000000000000D5
:100A200001000000010001000100010001000000C0
:100A300001000100010001000100010001000000AF
:100A400001000000000000000100010000000100A2
:100A5000010001000100010001000100000001008F
:100A60000000000000000100010000000100010082
:100A70000100010001000100010000000000000071
:100A80000000000001000100000001000100010061
:100A90000100010001000100000000000000000052
:100AA0000000010001000000010001000100010040
:100AB0000100010001000000000000000000000033
:100AC000010001000000010001000100010001001F
:100AD0000100010000000000000000000000010013
:100AE00001000000010001000100010001000100FF
:100AF00001000000010000000000000001000100F2
:100B000000000100010001000100010001000100DE
:100B100000000000000000000000000000000100D4
:100B200000000000000000000000000000000100C4
:100B300000000100010001000100010000000100AF
:100B4000010001000100010001000100000001009E
:100B50000000000000000100010000000100010091
:100B6000010001000100010001000000010000007F
:100B70000000000001000100000001000100010070
:100B80000100010001000100000000000000000061
:100B9000000001000100000001000100010001004F
:100BA0000100010001000000000000000000000042
:100BB000010001000000010001000100010001002E
:100BC0000100010000000000000000000000010022
:100BD000010000000100010001000100010001000E
:100BE0000100000000000000000000000100010002
:100BF00000000100010001000100010001000100EE
:100C000000000100000000000000010001000000E1
:100C100001000100010001000100010001000000CD
:100C200000000000000000000000000001000000C3
:100C300000000000000000000000000001000000B3
:100C4000010001000100010001000000010001009D
:100C5000010001000100010001000000010000008E
:100C6000000000000100010000000100010001007F
:100C7000010001000100010000000100000000006F
:100C8000000001000100000001000100010001005E
:100C90000100010001000000000000000000000051
:100CA000010001000000010001000100010001003D
:100CB0000100010000000000000000000000010031
:100CC000010000000100010001000100010001001D
:100CD0000100000000000000000000000100010011
:100CE00000000100010001000100010001000100FD
:100CF00000000000000000000000010001000000F2
:100D000001000100010001000100010001000000DC
:100D100001000000000000000100010000000100CF
:100D200001000100010001000100010000000000BD
:100D300000000000000000000000010000000000B2
:100D400000000000000000000000010000000100A1
:100D5000010001000100010000000100010001008C
:100D6000010001000100010000000100000000007E
:100D7000000001000100000001000100010001006D
:100D8000010001000100000001000000000000005F
:100D9000010001000000010001000100010001004C
:100DA0000100010000000000000000000000010040
:100DB000010000000100010001000100010001002C
:100DC0000100000000000000000000000100010020
:100DD000000001000100010001000100010001000C
:100DE0000000000000000000000001000100000001
:100DF00001000100010001000100010001000000EC
:100E000000000000000000000100010000000100DF
:100E100001000100010001000100010000000100CB
:100E200000000000000001000100000001000100BE
:100E300001000100010001000100000000000000AD
:100E400000000000000000000100000000000000A1
:100E5000000000000000000001000000010001008F
:100E6000010001000100000001000100010001007B
:100E7000010001000100000001000000000000006E
:100E8000010001000000010001000100010001005B
:100E9000010001000000010000000000000001004E
:100EA000010000000100010001000100010001003B
:100EB000010000000000000000000000010001002F
:100EC000000001000100010001000100010001001B
:100ED0000000000000000000000001000100000010
:100EE00001000100010001000100010001000000FB
:100EF00000000000000000000100010000000100EF
:100F000001000100010001000100010000000000DB
:100F100000000000000001000100000001000100CD
:100F200001000100010001000100000001000000BB
:100F300000000000010001000000010001000100AC
:100F4000010001000100010000000000000000009D
:100F50000000000000000100000000000000000090
:100F6000000000000000010000000100010001007D
:100F7000010001000000010001000100010001006A
:100F8000010001000000010000000000000001005D
:100F9000010000000100010001000100010001004A
:100FA000010000000100000000000000010001003D
:100FB000000001000100010001000100010001002A
:100FC000000000000000000000000100010000001F
:100FD000010001000100010001000100010000000A
:100FE00000000000000000000100010000000100FE
:100FF00001000100010001000100010000000000EB
:1010000000000000000001000100000001000100DC
:1010100001000100010001000100000000000000CB
:1010200000000000010001000000010001000100BB
:1010300001000100010001000000010000000000AB
:10104000000001000100000001000100010001009A
:10105000010001000100000000000000000000008D
:10106000000000000100000000000000000000007F
:10107000000000000100000001000100010001006B
:101080000100000001000100010001000100010059
:10109000010000000100000000000000010001004C
:1010A0000000010001000100010001000100010039
:1010B000000001000000000000000100010000002D
:1010C0000100010001000100010001000100000019
:1010D000000000000000000001000100000001000D
:1010E00001000100010001000100010000000000FA
:1010F00000000000000001000100000001000100EC
:1011000001000100010001000100000000000000DA
:1011100000000000010001000000010001000100CA
:1011200001000100010001000000000000000000BB
:1011300000000100010000000100010001000100A9
:10114000010001000100000001000000000000009B
:101150000100010000000100010001000100010088
:10116000010001000000000000000000000000007D
:10117000000001000000000000000000000000006E
:1011800000000100000001000100010012036B00DB
:101190006500790062006F00610072006400000069
:1011A000160371006D006B006200750069006C0031
:1011B00064006500720000000403090409026D0068
:1011C000040100A0FA090400000103010100092143
:1011D000110100012240000705810308000A0904EB
:1011E00001000103010200092111010001224D004B
:1011F0000705820308000A09040200010300000039
:101200000921110100012236000705830308000AA5
:10121000090403000103000000092111010001225B
:1012200039000705840320000112011001000000AD
:1012300008EDFE606001000102000105010906A140
:1012400001050719E029E7150025019508750181B9
:101250000205081901290595057501910295017589
:101260000391010507190029F71500250195F87567
:10127000018102C005010980A10185021601002635
:1012800003001A81002A8300751095018100C005B2
:101290000C0901A1018503160100269C021A010018
:1012A0002A9C02751095018100C005010902A10167
:1012B0000901A10005091901290515002501950558
:1012C000750181029501750381010501093009311C
:1012D0001581257F95027508810609381581257FBE
:1012E000950175088106050C0A38021581257F9540
:1012F0000175088106C0C005010906A1010507198D
:10130000E029E71500250195087501810295017511
:1013100008810105081901290595057501910295B6
:1013200001750391010507190029FF150026FF002B
:10133000950675088100C00011241FBECFEFDAE0CA
:10134000DEBFCDBF04B603FE27C080918D02909111
:101350008E02A0918F02B09190028730904BA740EF
:10136000B04BD1F410928D0210928E0210928F0227
:101370001092900214BE84B7877F84BF0FB6F89492
:10138000A895809160008861809360001092600051
:101390000FBEE0E0F8E3099511E0A0E0B1E0ECEF6A
:1013A000F0E502C005900D92A034B107D9F722E014
:1013B000A0E4B1E001C01D92AD38B207E1F70E9490
:1013C00094210C9450280C94000090E080E0089543
:1013D0000895089581E00895089581E008950C949A
:1013E000EA090E949C132FEF84E39CE02150804087
:1013F0009040E1F700C000000C94CF1BEF92FF92E9
:101400000F931F93CF93DF938C01FC01E080F18059
:1014100080919201811140C082818823C1F1C7016E
:101420000E942119C82F682FC7010E94CA18B7014E
:101430008C2F0E94360BEC01B8010E94EF09882323
:1014400009F44BC0B801CE010E943F0D882309F476
:1014500044C0C531F0E7DF0720F5C23080E7D80788
:1014600008F04DC0C115E0E7DE0791F1C130D0476B
:10147000E1F181E08093420180934301C801DF9153
:10148000CF911F910F91FF90EF900C94ED09C70140
:101490000E94F818C82FCBCFC7010E942119B701AD
:1014A000C8CFCC3380E7D80709F49BC0CD33D047F1
:1014B00001F7F8018281882309F4BAC01092430130
:1014C0000E947B1B909341018093400180E296C073
:1014D000F801828181110E94F10980E0DF91CF91B2
:1014E0001F910F91FF90EF900895F801828188235A
:1014F000A1F380914D02816080934D02EECFF801FF
:101500008281882309F4BACF0E94DC1A811102C0BB
:101510000E94C21A0E94F91A90E090937F02809371
:101520007E02FE01E350F04780917E028160E2314D
:10153000F10538F4EE5AF74D0C94002880917E02A4
:10154000826080937E0280917E020E94FD1A0E943A
:101550009C13C3CF80917E028460F3CF80917E0282
:101560008860EFCF80917E028061EBCF80917E0218
:101570008062E7CF80917E028064E3CF80917E021B
:101580008068DFCF80917E028C60DBCF80917E020D
:101590008E7FD7CF80917E028D7FD3CF80917E02C8
:1015A0008B7FCFCF80917E02877FCBCF80917E02D1
:1015B0008F7EC7CF80917E028F7DC3CF80917E02C8
:1015C0008F7BBFCF80917E028F77BBCF80917E02D1
:1015D000837FB7CF90917E02892F97FB87F9805840
:1015E000B0CFF8018281882361F0109242010E94FD
:1015F0007B1B909341018093400182E00E94011186
:101600006CCF8091420181110FC080914001909177
:1016100041010E94871B883C910530F486E20E94BC
:10162000D60F86E20E94B21082E00E94081155CFC8
:101630008091430181110FC080914001909141013F
:101640000E94871B883C910530F487E20E94D60FE8
:1016500087E20E94B21080E2E8CF0C948E0D0C94C9
:10166000900D0C94EC090C94310B0895972F70E0B9
:101670002FE0929F600D711D1124FB0197E8899F57
:10168000E00DF11D1124EE0FFF1FE455FF4F859172
:1016900094910895FC01EE0FFF1FE457FE4E8591D3
:1016A000949108950E94360B0E94C30C9C018115F1
:1016B00040E4940708F097C0211580E3380708F04C
:1016C000FAC0203E310508F074C0203C310508F016
:1016D000E5C0283A310588F4253A310508F0E2C022
:1016E0002130310509F477C0C9010497813A910589
:1016F00008F471C030E020E06EC0C901885A910939
:101700004597C0F7283A310509F4FEC0293A31055A
:1017100009F4FDC02A3A310509F4FCC02B3A310521
:1017200009F4FBC02C3A310509F4FAC02B3B310512
:1017300009F4F9C02C3B310509F4F8C02D3A310504
:1017400009F4F7C0203B310509F4F6C02E3A310503
:1017500009F4F5C02F3A310509F4F4C0213B3105F5
:1017600009F4F3C0223B310509F4F2C0233B3105F3
:1017700009F4F1C0243B310509F4F0C0253B3105E3
:1017800009F4EFC0263B310509F4EEC0273B3105D3
:1017900009F4EDC0283B310509F4ECC0293B3105C3
:1017A00009F4EBC02A3B310509F4EAC020E034E437
:1017B00012C0211590E2390780F42F3F310509F05E
:1017C00050F4283E310538F0C901805F9109306539
:1017D000409708F08FCFC9010895C9019F700E94FA
:1017E0004A0B9C01F8CF8115944508F041C02115A2
:1017F00083E5380708F06AC0211592E5390738F506
:10180000211541E5340708F05CC0211580E5380753
:1018100008F454C0C90134E0969587953A95E1F7EC
:101820008370422F46954695437090E2499FA001F0
:101830001124582B822F837021E030E002C0220F48
:10184000331F8A95E2F7242B352B3C68C4CFC9019E
:101850008370992741E050E002C0440F551F8A95DC
:10186000E2F72695269580E2289F90011124EBCF80
:10187000211596E5390748F4922F8827211535451B
:10188000C8F59C01246F306AA6CFC90190563F70FD
:101890008115904108F02ECF30629DCFC901805C48
:1018A00091099DCF253A310549F1263A310549F58F
:1018B00022E830E490CF3327306C8DCF3F70306A10
:1018C0008ACF322F2227216F306A85CFC9018370DA
:1018D000992741E050E002C0440F551F8A95E2F776
:1018E0002695269580E2289F90011124242B352BE4
:1018F0003A6871CF88279F719C01CECF21E830E4F0
:101900006ACF23E830E467CF22EE34E464CF29EED7
:1019100034E461CF2AEE34E45ECF25EB34E45BCFD0
:1019200026EB34E458CF23EB34E455CF24EB34E4F6
:1019300052CF27EB34E44FCF2CEC34E44CCF2DECDA
:1019400034E449CF23E835E446CF2AE835E443CFF1
:1019500022E935E440CF24E935E43DCF21E236E405
:101960003ACF23E236E437CF24E236E434CF25E21F
:1019700036E431CF26E236E42ECF27E236E42BCF11
:101980002AE236E428CF803E910581F1C8F4813304
:10199000910509F462C048F48932910509F456C0F2
:1019A0008A32910509F460C0089589339105B9F030
:1019B00082389105A1F08533910509F440C008955E
:1019C000863E910561F138F4823E9105B1F0833E87
:1019D0009105E1F00895873E910551F10895209118
:1019E0007E022370D9F080EE90E0089520917E026F
:1019F00020FF14C089E390E0089520917E0222FF29
:101A00000DC024FD09C083EE90E0089520917E0270
:101A100022FD31C024FF02C090E080E008952091B3
:101A20007E0223FFFBCF24FDF7CF87EE90E00895E1
:101A300020917E0223FFEECF86EE90E00895209164
:101A40007E0225FFEBCF89E290E0089520917E028F
:101A500025FFE4CF85E390E0089520917E0226FFE4
:101A6000DDCF8AE290E0089520917E0226FFD6CF56
:101A700081E390E0089582EE90E0089508950F9339
:101A80001F93CF938C01FB018281811106C0C1E0BD
:101A90008C2FCF911F910F910895C0915101C111C9
:101AA00025C00531104799F70E943E0D81E08093D3
:101AB00051010E947B1B9093500180934F01109223
:101AC0004401109246011092450110924801109273
:101AD000470110924A011092490110924C01109254
:101AE0004B0110924E0110924D01D2CF80914F01C7
:101AF000909150010E94871B883C910540F680918F
:101B00004401E82FF0E0EE0FFF1FEB5BFE4F118367
:101B100000838F5F80934401C0E0BACF0C94E80942
:101B20000C94E90985B7806885BF85B7806885BF53
:101B3000A2E2B1E061E070E08D91E82FE295EF70F4
:101B4000F0E041A18F709B0101C0220F8A95EAF756
:101B5000922F9095942391A382A1822B82A381E05E
:101B6000AB32B80749F7A3E1B1E061E070E08D91D5
:101B7000E82FE295EF70F0E041A18F709B0101C06A
:101B8000220F8A95EAF7922F9095942391A382A130
:101B9000822B82A381E0A232B80749F7E4E6F1E0A4
:101BA000A2E5B1E086E791E0119211921D921D929B
:101BB0008E179F07C9F70C942D0B2F923F924F92CF
:101BC0005F926F927F928F929F92AF92BF92CF92CD
:101BD000DF92EF92FF920F931F93CF93DF9302E573
:101BE00011E082E2C82E81E0D82E1801EE24E394A1
:101BF000F12C66246394D1018D909D901D011E925D
:101C00001E92E60189916E01E82FE295EF70F0E0F7
:101C100091A18F70970101C0220F8A95EAF7892F51
:101C2000822B81A382A1722E7094872182A3D0EA95
:101C3000DA95F1F763E171E090E080E0EB01599013
:101C4000BE01452D42954F7050E0EA0148A0AD908D
:101C5000BC901197552D5F70E70102C0CC0FDD1FBE
:101C60005A95E2F7AE01442109F059C0A701082EA8
:101C700002C0440F551F0A94E2F74A295B291196C6
:101C80005C934E9301968F309105C1F681A1782225
:101C900071A282A1282B22A38D919C91881699066E
:101CA00041F0609276010E947B1B909378018093B3
:101CB0007701D4E62D16D1E03D0609F09CCF809146
:101CC00076018823B1F080917701909178010E948C
:101CD000871B069770F0E4E6F1E0D8018D919D91A5
:101CE0008D0181939193B1E004361B07B1F71092F7
:101CF00076010E942F0B81E0DF91CF911F910F9110
:101D0000FF90EF90DF90CF90BF90AF909F908F901B
:101D10007F906F905F904F903F902F90089550E08C
:101D200040E0ABCFE82FF0E0EE0FFF1FEC59FE4F85
:101D3000808191810895089590937E0180937D0123
:101D40000895E0917D01F0917E01309721F001909E
:101D5000F081E02D099480E00895E0917D01F091FB
:101D60007E01309721F00280F381E02D09940895DF
:101D7000E0917D01F0917E01309721F00480F581A2
:101D8000E02D0994089520917B0130917C01281762
:101D9000390771F090937C0180937B01E0917D0184
:101DA000F0917E01309721F00680F781E02D0994B3
:101DB00008952091790130917A012817390771F03F
:101DC00090937A0180937901E0917D01F0917E01F9
:101DD000309721F00084F185E02D0994089508954D
:101DE0000C94EF0E0E94721B0E94920D0C943C1CEE
:101DF0005F926F927F928F929F92AF92BF92CF929B
:101E0000DF92EF92FF920F931F93CF93DF9300D057
:101E100000D00F92CDB7DEB70E94DD0D90E8A92E5D
:101E200091E0B92E10E000E088248394912C502E8C
:101E3000802F0E94920E7C01F501C190D1905F012C
:101E4000C816D90609F45DC080914D0281FD0E943B
:101E50009B0E90E080E0CE24DF243401082E02C0E7
:101E6000660C771C0A94E2F7960126213721232B72
:101E700009F442C089835A82E620F72081E0EF28E6
:101E800009F480E08B830E947B1B8160782F9D8307
:101E90008C8349815A816B818D810E94AD0F000F27
:101EA000111FF801E058FE4F808191816826792644
:101EB000718260820E94E91E0E94A10E90917F01B2
:101EC0008917B1F10E94A10E80937F010F900F90AE
:101ED0000F900F900F90DF91CF911F910F91FF9076
:101EE000EF90DF90CF90BF90AF909F908F907F90BA
:101EF0006F905F900C94330B01968F30910509F031
:101F0000ACCF0F5F1F4F0930110509F090CF8FEF55
:101F100089838A831B820E947B1B8160782F9D832B
:101F20008C8349815A816B818D810E94AD0FC2CF14
:101F30000F900F900F900F900F90DF91CF911F9106
:101F40000F91FF90EF90DF90CF90BF90AF909F9058
:101F50008F907F906F905F900895CF93DF93CDB770
:101F6000DEB72B970FB6F894DEBF0FBECDBF4F8301
:101F7000588769877A878B871E8285E0FE013796AE
:101F8000DE01119601900D928A95E1F749815A81FF
:101F90006B817C818D819E812B960FB6F894DEBF7C
:101FA0000FBECDBFDF91CF910C942416882309F486
:101FB000D8C0823871F40E94A10E81FDD2C089E39D
:101FC0000E94C9190E94931A89E30E94061A0C9470
:101FD000931A833859F40E94A10E80FDC2C083E594
:101FE0000E94C9190E94931A83E5EFCF843859F4EF
:101FF0000E94A10E82FDB5C087E40E94C9190E940B
:10200000931A87E4E2CF9CEF980F913A18F40E945C
:10201000C919DDCF90E2980F983050F4877091E0A5
:1020200001C0990F8A95EAF7892F0E944A1ACFCFEB
:102030009BE5980F933070F4853A31F0863A39F089
:1020400083E890E00C94C30E81E890E0FBCF82E837
:1020500090E0F8CF98E5980F953108F082C0883A63
:1020600009F440C0893A09F440C08A3A09F440C0F2
:102070008B3A09F440C08C3A09F440C08B3B09F418
:1020800040C08C3B09F440C08D3A09F440C0803B0D
:1020900009F440C08E3A09F440C08F3A09F440C0B8
:1020A000813B09F440C0823B09F440C0833B09F402
:1020B00040C0843B09F440C0853B09F440C0863BE6
:1020C00009F440C0873B09F440C0883B09F440C094
:1020D000893B09F440C08A3B09F440C090E080E0AD
:1020E0000C94D90E82EE90E0FBCF89EE90E0F8CF11
:1020F0008AEE90E0F5CF85EB90E0F2CF86EB90E0B2
:10210000EFCF83EB90E0ECCF84EB90E0E9CF87EB6F
:1021100090E0E6CF8CEC90E0E3CF8DEC90E0E0CF68
:1021200083E891E0DDCF8AE891E0DACF82E991E0BF
:10213000D7CF84E991E0D4CF81E292E0D1CF83E29E
:1021400092E0CECF84E292E0CBCF85E292E0C8CF9E
:1021500086E292E0C5CF87E292E0C2CF8AE292E0C7
:10216000BFCF0895882309F44BC0823871F40E94D0
:10217000A10E81FF45C089E30E94C9190E94931AEC
:1021800089E30E94061A0C94931A833859F40E942A
:10219000A10E80FF35C083E50E94C9190E94931AE1
:1021A00083E5EFCF843859F40E94A10E82FF28C046
:1021B00087E40E94C9190E94931A87E4E2CF9CEF3A
:1021C000980F913AF0F290E2980F983050F487709F
:1021D00091E001C0990F8A95EAF7892F0E94501A61
:1021E000D2CF9BE5980F933020F490E080E00C94E0
:1021F000C30E885A853120F490E080E00C94D90E0B
:102200000895882321F00E944A1A0C94931A089585
:10221000882321F00E94501A0C94931A08958F92EB
:102220009F92AF92BF92DF92EF92FF920F931F9314
:10223000CF93DF9300D000D00F92CDB7DEB77C01F3
:102240006D837983FC01058102950F701281111154
:102250000E94691A0E94C219D82E882371F0112396
:10226000A1F08D81805E883080F082E00E94AC1900
:102270000E94C21991E0D82ED926E981E295EF702B
:10228000F0E0EC59F74D0C940028D12CF6CF0981E1
:102290000F70F981F07F11F00295007F1123B1F0EA
:1022A000002361F08D81805E883018F02D8121112E
:1022B00009C0802F0E944A1A0E94931A8D810E94A1
:1022C000D60F15C0802F0E945B1AF6CF8D810E9419
:1022D000B210002361F08D81805E883018F03D815E
:1022E000311129C0802F0E94501A0E94931ADD20BC
:1022F00009F4D3C10E949F1980FDCFC1F70112825A
:102300000E9499190E94E217C7010E945E130E9461
:1023100099190F900F900F900F900F90DF91CF9120
:102320001F910F91FF90EF90DF90BF90AF909F9023
:102330008F900C940418802F0E94611AD6CF498187
:102340004F70B42E5981507F503219F0B29480EF03
:10235000B8228D81882369F0813029F1112369F138
:10236000002359F0F701858180FFA8CF8F70858306
:1023700004C0112361F0011104C08B2D0E940111D2
:10238000B6CF8B2D0130D1F70E947D1AB0CF01114D
:1023900006C00E94801A8B2D0E940811A8CF013020
:1023A00009F4A5CFF6CF112321F0063008F09FCF16
:1023B000E4CF053008F09BCFEECF002361F38D8191
:1023C0000E94B21094CF898186958695837069F0BA
:1023D000813009F08CCF8D8199819370111102C0E9
:1023E00090E080E00E94D90E82CF8D819981937018
:1023F000111102C090E080E00E94C30E78CF8D8161
:10240000112329F00E94F71D0E94DE1E70CF0E944A
:102410005F1EFACF8981837009F05FC0111167CF09
:102420002D81229526952770220F220F8D818F7086
:1024300090E0B0E0A0E04C015D01022E04C0880CE9
:10244000991CAA1CBB1C0A94D2F7FD8160E070E0C5
:10245000CB01F4FF0FC06FE070E080E090E004C0BB
:10246000660F771F881F991F2A95D2F76095709580
:102470008095909529812695269523702D8322306D
:10248000B1F0233019F19B01AC01282939294A29DF
:102490005B2929833A834B835C833D8169817A81FF
:1024A0008B819C813130B1F00E946F1720CF9B014E
:1024B000AC01282939294A295B2929833A834B838E
:1024C0005C83CA01B9010E94991711CF0E946F174E
:1024D000C501B4010E9445170ACF8695112311F05A
:1024E00089818170882309F402CF2D812295269558
:1024F0002770220F220F8D818F7090E0B0E0A0E056
:102500004C015D01022E04C0880C991CAA1CBB1C46
:102510000A94D2F73D8160E070E0CB0134FF0FC038
:102520006FE070E080E090E004C0660F771F881FC6
:10253000991F2A95D2F7609570958095909549815D
:102540004695469543704D834230B1F0433019F1C2
:102550009B01AC01282939294A295B2929833A831F
:102560004B835C833D8169817A818B819C81313091
:10257000B1F00E947518BBCE9B01AC012829392906
:102580004A295B2929833A834B835C83CA01B901B9
:102590000E949F18ACCE0E947518C501B4010E941C
:1025A0004B18A5CE3D81323F09F447C080F4303F3F
:1025B00079F1313FD9F1832F805E8031D0F0112342
:1025C00009F456C001117ACE89818F7133C04D81D3
:1025D000433FD1F1443F99F7112309F43FC089816A
:1025E0008F7189830E94E21763E089810E94A31999
:1025F0007ECE5D815F705D8389818F71112321F0B3
:102600000E94E2178D81BACE0E9404188D81C4CE3B
:10261000112341F0053008F06ACE89818F710E9444
:10262000291865CE063008F062CEF7CF89818F7108
:10263000112339F00E94E2175ACE89818F7111233C
:10264000C9F30E94041853CE112329F089818F7198
:102650000E94CD174CCE0E94C31749CE81E00E9444
:10266000AC19023008F443CE82E00E94AC193FCE90
:102670000111A5CE89818F71E4CF49814F706D81A1
:10268000C7010E94E5090E94BE1631CE49814F70F4
:102690006D81C7010E94350B2ACE0F900F900F90CD
:1026A0000F900F90DF91CF911F910F91FF90EF90BE
:1026B000DF90BF90AF909F908F9008950F931F93DE
:1026C000CF93DF93EC018B819C81892B29F088814A
:1026D000998189238F3F29F4DF91CF911F910F9129
:1026E0000895CE010E94FE098823B1F368817981A3
:1026F0008A810E946F198C010E94C9180E943A17A2
:10270000B801CE01DF91CF911F910F910C940F1161
:102710000E94691A0E947A1A0E943C1A0E94931A17
:102720000E94CF1F0E94DE1E90E080E00E94C30E38
:1027300090E080E00C94D90E0E94581A0C948813F3
:102740000E946319282F892F82958F70903C80F406
:102750008A30B0F4843020F4823090F480E0089520
:102760008630E1F781E0203E88F0213FB9F70EC0C6
:102770008C3011F08F3091F793FB882780F9089502
:1027800081E0203F39F018F4203E40F70895243FBF
:1027900029F7FCCF0895CF93DF9300D000D00F929C
:1027A000CDB7DEB70F900F900F900F900F90DF9185
:1027B000CF910895CF93DF9300D000D000D0CDB754
:1027C000DEB726960FB6F894DEBF0FBECDBFDF9101
:1027D000CF9108951F93CF93DF93E091930116E07B
:1027E000809194018E1304C0DF91CF911F910895C1
:1027F000CE2FD0E01E9FF0011124EB56FE4F4081FA
:10280000518162817381848195810E94DA13FE0176
:102810003196E770E5CF4091C5015091C6016091B6
:10282000C7017091C8018091C9019091CA010C94AF
:10283000DA131F93CF93DF938091CA01807FC1F495
:102840008091C7018823A1F080919301C0919401E8
:102850006091C5017091C6014091C8015091C901B4
:10286000D62FD723DA01A095B09516E0C81304C07F
:10287000DF91CF911F91089590E04115510511F01E
:10288000DF3F31F401968770F1CF2A0F3B1F17C04D
:10289000189FF001199FF00D1124EB56FE4F218176
:1028A0002713F0CF20812613EDCF22812111EACF0B
:1028B000238134812417350740F3241B350B283C32
:1028C000310500F72091CA012F7020612093CA01C1
:1028D00026E0289FF001299FF00D1124E656FE4FB7
:1028E00080818F708061808385EC91E00E945E130F
:1028F000DF91CF911F910C94EA139F92AF92BF92F8
:10290000CF92DF92EF92FF920F931F93CF93DF93BB
:10291000CDB7DEB72B970FB6F894DEBF0FBECDBF95
:102920008C0185E0F801DE01179601900D928A95E1
:10293000E1F7D8014C9111965C9111971296EC90A9
:1029400012978091C8019091C901009709F46BC159
:102950002091C5013091C601632F62236F3F09F4B6
:1029600062C11396CD90DC909090C701992009F434
:10297000F8C0C816D90608F43FC0F601E81BF90BE9
:10298000CF01FF24F394883C910508F0F12C85ECED
:10299000A82E81E0B82E8091CA01982F907FFF2049
:1029A00009F4B7C0911180C0FE2C35132AC024133E
:1029B00028C0E11026C08F7080618093CA010E94F8
:1029C0000B14C5010E945E138091CA01D8011596AF
:1029D0008C938F2D2B960FB6F894DEBF0FBECDBF14
:1029E000DF91CF911F910F91FF90EF90DF90CF90EB
:1029F000BF90AF909F900895809590958C0D9D1DF0
:102A0000C0CFCD2829F0842F85238F3F09F019C12D
:102A100080E0B82FB170DB2EE091930120919401FA
:102A200036E080FD1CC0EE20A1F28091CA018160D9
:102A30008093CA01F12CCDCF8E2F90E03E9FF00104
:102A40001124EB56FE4F6181651306C0608164134B
:102A500003C062816E11E7CFFC013196E770E2138B
:102A6000EBCF4F8358878F8198850E946319292F58
:102A700022952F70903260F0225F2F70223078F410
:102A80009F7051F0F8019581907F31F4D12C0AC0EC
:102A90009F7011F08823D1F3805E8830B8F3C801AD
:102AA0000E945E13FD2C95CF351306C0241304C07D
:102AB000D801EE2009F47BC04F8358878F81988519
:102AC0000E94A013882309F4B8C0EE2009F4B5C011
:102AD0008091CA01803270F02091C5013091C60109
:102AE0003A8329831B82DD82CC828E83CE010196BC
:102AF0000E945E1386E0F801A5ECB1E001900D9212
:102B00008A95E1F70E9419140E940B14FF24F39494
:102B100060CF911113C07C2DDB86CA866E2D8B850C
:102B20000E94CB1385EC91E00E945E1386E0F501D4
:102B300011928A95E9F70E940B144BCF3513BCCF45
:102B40002413BACFE110B8CFD80115968C93C801E1
:102B50000E945E1386E0F50111928A95E9F7F92C3F
:102B600038CFC816D90688F1B601681B790BCB019E
:102B7000F12C883C910508F047C0FE2CEE2009F4AA
:102B80005CC0351330C024132EC08091CA0180FD73
:102B900021C0982F907FF1F0D80115968C9315974E
:102BA000903F39F0982F907F905F8F70892B15960A
:102BB0008C93C8010E945E1386E0F801A5ECB1E099
:102BC00001900D928A95E1F7B6CF809590958C0D86
:102BD0009D1DCECF86E0F801A5ECB1E001900D92ED
:102BE0008A95E1F7F6CE4F8358878F8198850E94AA
:102BF000A01381117FCF8091CA0181608093CA01A7
:102C0000C8010E945E13E5CE7C2DDB86CA866E2D40
:102C10008B850E94CB1386E0E5ECF1E0DF011D928D
:102C20008A95E9F788CFEE2041F04F8358878F814E
:102C300098850E94A01381115DCFC8010E945E1388
:102C400065CF81E08E25E5CE1F93CF93DF93CDB77F
:102C5000DEB72C970FB6F894DEBF0FBECDBF4F8303
:102C6000588769877A878B879C87CE0107960E9451
:102C70007D14882369F08A859B85892B39F04F81E3
:102C80005885842F85238F3F09F071C016E05FC0FF
:102C900086E0FE013796DE01119601900D928A952D
:102CA000E1F78A859B85892B89F388859F81892314
:102CB0008F3F61F32091940130E0C9010196877044
:102CC0009927409193014817190671F40E949C13AB
:102CD000109294011092930186E0E5ECF1E0DF019F
:102CE0001D928A95E9F7D2CF96E0929FD001939FEB
:102CF000B00D1124AB56BE4FFE01319601900D92DE
:102D00009A95E1F7809394010E94EA13BFCF819FC7
:102D1000C00111248B569E4F0E947D148823E9F038
:102D2000E09193011E9FF0011124EB56FE4F40816C
:102D3000518162817381848195810E94DA1380912F
:102D4000930190E001968770992780939301809179
:102D50009301909194018913DACF2C960FB6F894D1
:102D6000DEBF0FBECDBFDF91CF911F910895698562
:102D70007A858B859C850E94DA1388CFEF92FF922B
:102D80000F931F93CF93DF938C01892B89F0F12C44
:102D9000EE24E394E8012196F8018491843709F444
:102DA00057C0A0F4823009F43EC048F48130D1F01D
:102DB000DF91CF911F910F91FF90EF9008959CEFBD
:102DC000980F9037A8F70E94D60F0AC0853709F4EC
:102DD0004CC09CE7980F903758F78F770E94B2103D
:102DE0008E0116C00E5F1F4FFE01849190E2980F76
:102DF000983060F48770FE2D01C0FF0F8A95EAF7C6
:102E00008F2F0E946C1A0E94931A02C00E94D60F44
:102E10008F2D815008F4BECFEFE9FFE03197F1F735
:102E200000C00000F6CF0E5F1F4FFE01849190E2BC
:102E3000980F983050F48770FE2D01C0FF0F8A95CF
:102E4000EAF78F2F0E94721ADECF0E94B210E0CFF5
:102E50000E5F1F4FFE01C491C150D0F28FE99FE079
:102E60000197F1F700C00000F7CF0E5F1F4FFE0182
:102E7000F490CECF0895609324027093250280933E
:102E80002602909327020C948813CF93DF9300D0EF
:102E900000D0CDB7DEB769837A838B839C83809122
:102EA000240290912502A0912602B0912702298147
:102EB0003A814B815C81822B932BA42BB52B809381
:102EC000240290932502A0932602B09327020F902C
:102ED0000F900F900F90DF91CF910C948813CF93A8
:102EE000DF9300D000D0CDB7DEB769837A838B83C0
:102EF0009C838091240290912502A0912602B0919A
:102F0000270229813A814B815C8182239323A42368
:102F1000B5238093240290932502A0932602B093B8
:102F200027020F900F900F900F90DF91CF910C948C
:102F30008813CF93DF9300D000D0CDB7DEB769837D
:102F40007A838B839C838091240290912502A091A7
:102F50002602B091270229813A814B815C81822728
:102F60009327A427B5278093240290932502A0934A
:102F70002602B09327020F900F900F900F90DF91D1
:102F8000CF910C948813109220021092210210927B
:102F90002202109223020C94881341E050E060E07A
:102FA00070E004C0440F551F661F771F8A95D2F743
:102FB00040932002509321026093220270932302D7
:102FC0000C948813282F81E090E0A0E0B0E004C0CA
:102FD000880F991FAA1FBB1F2A95D2F74091200284
:102FE000509121026091220270912302842B952B33
:102FF000A62BB72B8093200290932102A09322024C
:10300000B09323020C94881341E050E060E070E03C
:1030100004C0440F551F661F771F8A95D2F740954D
:103020005095609570958091200290912102A09119
:103030002202B091230284239523A623B7238093F1
:10304000200290932102A0932202B09323020C94B9
:103050008813282F81E090E0A0E0B0E004C0880F42
:10306000991FAA1FBB1F2A95D2F7409120025091A9
:103070002102609122027091230284279527A627BE
:10308000B7278093200290932102A0932202B0934D
:1030900023020C948813CF93DF9300D000D0CDB7D8
:1030A000DEB769837A838B839C8380912002909121
:1030B0002102A0912202B091230229813A814B8101
:1030C0005C81822B932BA42BB52B809320029093B1
:1030D0002102A0932202B09323020F900F900F9031
:1030E0000F90DF91CF910C948813CF93DF9300D092
:1030F00000D0CDB7DEB769837A838B839C838091C0
:10310000200290912102A0912202B09123022981F4
:103110003A814B815C8182239323A423B52380933E
:10312000200290932102A0932202B09323020F90D9
:103130000F900F900F90DF91CF910C948813CF9345
:10314000DF9300D000D0CDB7DEB769837A838B835D
:103150009C838091200290912102A0912202B09143
:10316000230229813A814B815C8182279327A427FE
:10317000B5278093200290932102A0932202B0935E
:1031800023020F900F900F900F90DF91CF910C942E
:1031900088130895E82F2FE0929FE00D11248E2FC1
:1031A000877041E001C0440F8A95EAF7E695E695FD
:1031B000E69585E0E89FF0011124E553FE4F30E0ED
:1031C00020E070E05191DF011197CB01022E02C087
:1031D000969587950A94E2F78170819585278423D7
:1031E00085278C932F5F3F4F2530310559F7089580
:1031F000E82F2FE0929FE00D11249E2F9770E69507
:10320000E695E69585E0E89FF0011124E553FE4F31
:1032100050E040E080E0219130E0092E02C0369578
:1032200027950A94E2F721703327042E01C0220F5C
:103230000A94EAF7822B4F5F5F4F4530510559F7EB
:103240000895BF92CF92DF92EF92FF920F931F9358
:10325000CF93DF938C01C0902002D0902102E090A8
:103260002202F09023028091240290912502A091E5
:103270002602B0912702C82AD92AEA2AFB2ACFE1DE
:10328000D0E0BC2ED701C6010C2E04C0B695A79580
:10329000979587950A94D2F780FD0EC0219788F7FD
:1032A000B12C8B2DDF91CF911F910F91FF90EF905B
:1032B000DF90CF90BF900895B8018C2F0E94520BE1
:1032C000019761F3EECFCF93DF93D82FC92F0E94E0
:1032D00021196D2F7C2FDF91CF910C94520B1F93EE
:1032E000CF93DF93162FD72F90919201992339F026
:1032F000862F972FDF91CF911F910C94631988230C
:1033000091F0862F972F0E942119C82F682F812FA7
:103310009D2F0E94CA18612F7D2F8C2FDF91CF9196
:103320001F910C94520B862F972F0E94F818C82FCC
:10333000F2CF809128028595859585950895809195
:1033400028028770089598E0899F90011124622BCC
:10335000609328020C94E2179091280280958923AB
:1033600080932802282F277061F4282F082E000C44
:10337000330B9217130629F08595859585950C9446
:103380000418089590912802977081E009F480E074
:103390000895909112019923E1F090917E0297FF98
:1033A00018C0E82FE695E695E695EF3139F12091C2
:1033B000000130910101E20FF32FF11D877021E030
:1033C00030E001C0220F8A95EAF78181822B818348
:1033D00008952091000130910101F90132969FEF8B
:1033E00040E05191851751F09F3F19F4511101C0F0
:1033F000942F4F5F4E31A9F79F3F09F40895290F8D
:10340000311D97FD3A95F90182830895909112013B
:10341000992301F190917E0297FF1CC0E82FE69559
:10342000E695E695EF3139F12091000130910101E7
:10343000E20FF32FF11D877021E030E0A90102C0F7
:10344000440F551F8A95E2F7CA018095918189231F
:10345000818308952091000130910101F901329694
:10346000205E3F4F9191891303C0DF0111971C9299
:10347000E217F307B9F7089581E090E0E0910001C9
:10348000F0910101E80FF91F108201968032910539
:10349000A9F7089590914C02982B90934C020895AF
:1034A000982F909580914C02892380934C02089527
:1034B00010924C02089590914B02982B90934B02DE
:1034C0000895982F909580914B02892380934B0209
:1034D000089510924B02089590914A02982B909370
:1034E0004A020895982F909580914A0289238093EB
:1034F0004A02089510924A0208958093290208957D
:103500001092290208952091000130910101F901E2
:103510003196205E3F4F80E0919191118F5FE217CD
:10352000F307D1F70895E0910001F0910101809136
:103530004C028083E0910001F09101018081909123
:103540004B02892B8083E0910001F0910101808181
:1035500090914A02892B808390912902992361F0EE
:10356000E0910001F09101018081892B80830E940C
:10357000831A81111092290280910001909101011A
:103580000C94AD0E6DEE7EEF90E080E00E943A2844
:1035900060E082E090E00E94282860E083E090E014
:1035A0000E94282860E084E090E00E94282860E0E3
:1035B00085E090E00C94282890E080E00E9422288A
:1035C0009C0181E02D3E3E4F09F080E0089582E0AD
:1035D00090E00C941A28682F82E090E00C94282840
:1035E00083E090E00C941A28682F83E090E00C941C
:1035F000282884E090E00C941A28682F84E090E05A
:103600000C94282880918402843039F110924E0263
:1036100088E190E020E40FB6F894A89580936000CC
:103620000FBE2093600080E00E94330B83B7817F40
:10363000846083BF83B7816083BF7894889583B7A4
:103640008E7F83BF0FB6F894A89580916000886143
:1036500080936000109260000FBE08950895089551
:10366000CF930E942E1B0E94DD0D0E942F1BC0E0F5
:103670008C2F0E94920E892B31F4CF5FC930C1F795
:1036800080E0CF91089581E0FCCF0E949C130E94BE
:10369000A10E0C94330B1F921FB61F9211248F930F
:1036A0009F93AF93BF9380914E02811113C080917D
:1036B0007A0290917B02A0917C02B0917D024196AA
:1036C000A11DB11D80937A0290937B02A0937C028E
:1036D000B0937D02BF91AF919F918F911F901FBEBC
:1036E0001F90189582E084BD93E095BD9AEF97BD39
:1036F00080936E0008952FB7F89480917A0290918C
:103700007B02A0917C02B0917D022FBF0895CF92E1
:10371000DF92EF92FF929C014FB7F89480917A026A
:1037200090917B02A0917C02B0917D024FBF6C0111
:103730007D01EE24FF24A90170E060E0C416D506E7
:10374000E606F70638F0821B930BFF90EF90DF90B0
:10375000CF9008950197F7CF1F921FB61F921124A3
:103760008F939F93AF93BF9380917A0290917B0246
:10377000A0917C02B0917D020196A11DB11D8093A4
:103780007A0290937B02A0937C02B0937D02BF915A
:10379000AF919F918F911F901FBE1F9018950E940F
:1037A000C323F8942FEF87EA91E6215080409040A0
:1037B000E1F700C0000087E090EBDC0180938D0210
:1037C00090938E02A0938F02B093900288E19CE0C8
:1037D0000FB6F894A895809360000FBE9093600098
:1037E000FFCFAF92BF92CF92DF92EF92FF920F93F3
:1037F0001F93CF93C0E0AA24A394B12CE82EF12C00
:103800008C2F0E94920E6C0110E000E0C501002E8A
:1038100002C0880F991F0A94E2F78C219D21892B01
:1038200099F0602F7C2F80E00E94360BE816F90695
:1038300059F481E0CF911F910F91FF90EF90DF90AD
:10384000CF90BF90AF9008950F5F1F4F0F301105BD
:10385000E9F6CF5FC930A1F680E0ECCFCF93C82F57
:103860008CE20E94F11B882321F08C2FCF910C94C5
:10387000F11B80E0CF910895CF93DF9300D000D06B
:10388000CDB7DEB70E94DC1A811102C00E94C21AB5
:1038900095E6998308C00E94DD0D8FE39CE90197AE
:1038A000F1F700C00000A981A150A983A111F3CFB5
:1038B00089E20E942E1C811110C18AE20E942E1CF6
:1038C00081110E94C21A85E00E942E1C81110E9463
:1038D000CF1B0E94E71A80934D0287E00E942E1CA6
:1038E000882371F08BE10E942E1C882309F4D1C03B
:1038F00090914D02892F8D7F91FF826080934D02C0
:1039000080914D020E94EB1A0E94F91A90E0909368
:103910007F0280937E0280EE0E942E1C882341F05D
:1039200090917E02892F8E7F90FF816080937E022E
:1039300089E30E942E1C882341F090917E02892FFA
:103940008D7F91FF826080937E0282EE0E942E1C0A
:10395000882341F090917E02892F8B7F92FF8460B3
:1039600080937E0286EE0E942E1C882341F0909167
:103970007E02892F877F93FF886080937E0283EE8B
:103980000E942E1C882341F090917E02892F8F7E09
:1039900094FF806180937E0285E30E942E1C882321
:1039A00041F090917E02892F8F7D95FF80628093F8
:1039B0007E0281E30E942E1C882341F090917E02BA
:1039C000892F8F7B96FF806480937E0281E10E9425
:1039D0002E1C882341F090917E02892F97FB87F956
:1039E000805880937E0280917E020E94FD1A87E2B9
:1039F0000E942E1C89838EE10E942E1C882319F0C0
:103A0000B981B260B9838FE10E942E1C882319F01E
:103A100029812460298380E20E942E1C882319F0CA
:103A200039813860398381E20E942E1C882319F085
:103A300049814061498382E20E942E1C882319F04B
:103A400059815062598383E20E942E1C882319F009
:103A500089818064898384E20E942E1C8823B1F1CD
:103A600099819068998389810E94F41A3981232F62
:103A700030E050E040E029833A834B835C83CA0105
:103A8000B9010F900F900F900F90DF91CF910C9490
:103A90003B178EE00E942E1C882339F090914D0236
:103AA000892F8B7F92FF846029CF80E10E942E1C9A
:103AB00090914D02882329F0892F877F93FF88609A
:103AC0001DCF892F8E7F90FF816018CFA981A11112
:103AD000CACF0E94F01A282FCBCF0F900F900F90D3
:103AE0000F90DF91CF9108958091510280FF12C015
:103AF0006091050185E0689FB00111247595679577
:103B00007595679560387105A8F561157105A1F186
:103B1000862F089581FF09C06091050185E0689FA7
:103B2000B001112475956795EDCF6091050182FD77
:103B30000AC0809152028823D1F0909104016091D3
:103B40000501891728F085E0689FB0011124DACFBC
:103B5000869FB001112485E0869F9001879F300DDC
:103B60001124692F70E0C9010E94EC27CBCF65E0DA
:103B700070E0CECF8FE7089581E0089580915102E3
:103B800080FF0CC06091030170E075956795759595
:103B900067956115710549F1862F089581FF06C06B
:103BA0006091030170E075956795F3CF6091030113
:103BB00082FD0BC0909152029923A1F06091020105
:103BC00080910301961738F0682F70E06038710516
:103BD00000F38FE70895899FC001112470E00E94CF
:103BE000EC27F4CF61E070E0D7CF81E00895803F0B
:103BF00031F40E94741D8195809355020895813F90
:103C000019F40E94741DF8CF823F31F40E94741D94
:103C10008195809354020895833F19F40E94741D86
:103C2000F8CF893F29F40E94BE1D80935602089563
:103C30008A3F21F40E94BE1D8195F7CF8B3F31F45E
:103C40000E94BE1D81958093570208958C3F19F400
:103C50000E94BE1DF8CF843F31F4809153028160F1
:103C6000809353020895853F21F48091530282602E
:103C7000F7CF863F21F4809153028460F1CF873FD4
:103C800021F4809153028860EBCF883F21F480912A
:103C900053028061E5CF8D3F31F480915102816004
:103CA0008093510208958E3F21F4809151028260E9
:103CB000F7CF8F3FB9F7809151028460F1CF909197
:103CC0005402803F41F48091550287FD10925502C5
:103CD000992371F00895813F29F4809155021816B7
:103CE000ACF3F6CF823F81F497FFF2CF10925402EB
:103CF0008091550290915602892B90915702892B01
:103D000049F7109252020895833F19F4191674F37B
:103D1000DFCF893F39F4809156021816CCF6109205
:103D20005602D6CF8A3F29F48091560287FFD0CF22
:103D3000F6CF8B3F39F48091570287FFC9CF10929D
:103D40005702C6CF8C3F29F4809157021816BCF356
:103D5000BFCF843F31F4809153028E7F8093530212
:103D6000B7CF853F21F4809153028D7FF7CF863FF7
:103D700021F4809153028B7FF1CF873F21F4809112
:103D80005302877FEBCF883F21F4809153028F7ECF
:103D9000E5CF8D3F31F4809151028E7F80935102A7
:103DA00097CF8E3F21F4809151028D7FF7CF8F3FC7
:103DB00009F08ECF809151028B7FF0CF83E592E0A6
:103DC0000E94B80E0E947B1B9093500280934F027A
:103DD00008951F93CF93DF9300D000D000D0CDB7CC
:103DE000DEB780914F02909150020E94871BAC0178
:103DF000809152022091060130E0811106C020918D
:103E000007019AE0299F900111244217530788F077
:103E100020915402A0915502A98310915602B091AD
:103E20005702BE8321110FC09A2F912B9B2B09F0B3
:103E3000B2C026960FB6F894DEBF0FBECDBFDF919D
:103E4000CF911F9108958F3F19F08F5F8093520299
:103E5000121624F40E94741D80935402809154021F
:103E600087FF05C00E94741D8195809354022981AB
:103E7000121624F40E94741D8093550280915502FD
:103E800087FF05C00E94741D819580935502809123
:103E90005402882309F455C0309155023D833323E1
:103EA00009F44FC0282F880F330B440B550B29837F
:103EB0003A834B835C83CA01B9010E94F32623E352
:103EC00033E343E35FE369837A838B839C83698174
:103ED0007A818B819C810E94572769837A838B83A7
:103EE0009C8369817A818B819C810E94BB2660932F
:103EF00054028D81082E000C990BAA0BBB0B8983F1
:103F00009A83AB83BC83BC01CD010E94F32623E3DB
:103F100033E343E35FE369837A838B839C83698123
:103F20007A818B819C810E94572769837A838B8356
:103F30009C8369817A818B819C810E94BB266093DE
:103F40005502111624F40E94BE1D809356028091E2
:103F5000560287FF05C00E94BE1D819580935602C0
:103F60009E81191624F40E94BE1D809357028091F1
:103F7000570287FF05C00E94BE1D8195809357029E
:103F800026960FB6F894DEBF0FBECDBFDF91CF915E
:103F90001F910C94DE1E8F3F09F057CF68CF85E04C
:103FA000E3E5F2E0DF011D928A95E9F710925202F3
:103FB000109251020895809178020895CF93DF9373
:103FC00000D00F92CDB7DEB720918402243019F5CE
:103FD00023E029838A839B832093E9008FEF9091CC
:103FE000E800815095FD06C095ED9A95F1F7000027
:103FF0008111F5CF8091E80085FF0DC050E040E0D1
:1040000063E070E0CE0101960E943B228091E800BF
:104010008E778093E8000F900F900F90DF91CF91F3
:104020000895CF93DF9300D00F92CDB7DEB79C01F8
:1040300080918402843031F582E0898320583109EF
:104040003B832A8383E08093E9008FEF9091E8001F
:10405000815095FD06C095ED9A95F1F7000081110C
:10406000F5CF8091E80085FF0DC050E040E063E0AF
:1040700070E0CE0101960E943B228091E8008E778D
:104080008093E8000F900F900F90DF91CF910895EB
:10409000209184022430F1F422E02093E9002FEFF4
:1040A0003091E800215035FD06C035ED3A95F1F725
:1040B00000002111F5CF2091E80025FF0BC050E052
:1040C00040E065E070E00E943B228091E8008E773E
:1040D0008093E8000895CF93DF93D82FC92F809164
:1040E00084028430F1F4909112019923E9F09091C7
:1040F0007E0297FF19C08093E9008FEF9091E8004E
:10410000815095FD06C095E19A95F1F70000811167
:10411000F5CF8091E80050E040E060E270E085FD7E
:104120001AC0DF91CF91089581E08093E9008FEF6D
:104130009091E800815095FD06C095ED9A95F1F7B4
:1041400000008111F5CF8091E80085FFEACF50E0B3
:1041500040E068E070E08D2F9C2F0E943B22809110
:10416000E8008E778093E80080E2ED2FFC2FA8E531
:10417000B2E001900D928A95E1F7D3CF809183024E
:10418000811109C00E94C3230E9420248091E20073
:1041900084608093E2000895109283020895089548
:1041A00008950C94451B42E061EC81E00E943F239E
:1041B00042E061EC82E00E943F2342E061EC83E058
:1041C0000E943F2342E261EC84E00C943F23809103
:1041D0008602893089F148F4823009F494C0833032
:1041E00009F44FC0813041F008958A3009F47BC052
:1041F0008B3009F461C0089580918502813A09F0FD
:104200003FC08091E800877F8093E8008091890219
:1042100090918A02892B61F460E288E592E070E077
:104220000E948A228091E8008B778093E8000895AD
:1042300060E090E080E0F3CF80918502813201F56B
:104240008091890290918A02009711F00397C1F43E
:104250008091E800877F8093E8008091E80082FFEA
:104260000BC08091F100809378028091E8008B77F9
:104270008093E8000C947323809184028111EDCF28
:10428000089580918502813AD9F7809189029091B1
:104290008A02892BA9F78091E800877F8093E80044
:1042A0008091E80080FFFCCF809112018093F100A3
:1042B0008091E8008E77DCCF80918502813201F712
:1042C0008091890290918A02892BD1F68091E80031
:1042D000877F8093E8000E947323809187028093F8
:1042E00012010C949C1380918502813249F68091D1
:1042F000E800877F8093E8000E9473238091880202
:1043000080937902089580918502813A09F0B8CFAF
:104310008091E800877F8093E8008091E80080FF2B
:10432000FCCF80917902C2CF84B7877F84BF0FB65C
:10433000F894A89580916000886180936000109245
:1043400060000FBE80E880936100109261000E94BF
:10435000F00E0E94C3230E9420248091E20084601A
:104360008093E20078940E94A0260E94F20E88E0DA
:1043700091E00E949C0E80918402853019F00E9489
:10438000F80EF9CF0E94021B80918202882399F3D4
:104390000E94301B882379F30E942522ECCF9C01D8
:1043A000DA01892F992783309105C1F068F48130B3
:1043B000910509F445C0029761F48DE690E02CEB7D
:1043C00031E12D933C93089581329105E1F082977C
:1043D00039F190E080E030E020E0F3CFC901992787
:1043E000213059F08230910559F0E8EBF1E1892B49
:1043F00081F7849190E09F01E4CFE0EAF1E1F9CF09
:10440000ECE8F1E1F6CF643020F7E62FF0E0EE0FB4
:10441000FF1FE95CFE4F2081318189E090E0D1CF20
:104420006430B8F670E0FB01EE0FFF1FE15DFE4F58
:1044300020813181655D7E4FFB01808190E0C1CF9D
:1044400082E190E029E232E1BCCF80E189BD82E1E6
:1044500089BD09B400FEFDCF8091D8008F7D809387
:10446000D8008091E00082608093E0008091E000BD
:1044700081FDFCCF0895AF92BF92CF92DF92FF9261
:104480000F931F93CF93DF936C01EB018A010E947E
:104490009223F82E811123C00115110539F0F8017E
:1044A00080819181C81BD90BC80ED91EB12CA12CBB
:1044B0002097A9F08091E80085FD22C08091E80056
:1044C0008E778093E80001151105A1F0F801808135
:1044D0009181A80EB91EB182A08285E0F82E8F2DA1
:1044E000DF91CF911F910F91FF90DF90CF90BF9000
:1044F000AF9008950E9492238823D1F2F82EEFCF37
:10450000F60181916F018093F1002197FFEFAF1ABF
:10451000BF0ACECFFC01CB0120918B0230918C02DF
:104520002617370790F0009729F42091E8002E779E
:104530002093E80040E0009751F4411108C08091B9
:10454000E80082FF31C080E00895C901F3CF2091D7
:1045500084022223A9F12530A9F12091E80023FD4E
:104560002DC02091E80022FDEACF2091E80020FF35
:10457000E2CF3091F3002091F200009719F028303B
:10458000310558F041E02830310509F040E0209134
:10459000E8002E772093E800CECF41914093F100C0
:1045A00001972F5F3F4FE9CF80918402882341F02C
:1045B000853041F08091E80083FFC1CF81E008950C
:1045C00082E0089583E00895FC01CB0120918B02E5
:1045D00030918C022617370790F0009729F420912C
:1045E000E8002E772093E80040E0009751F4411155
:1045F00008C08091E80082FF32C080E00895C901C0
:10460000F3CF209184022223B1F12530B1F1209122
:10461000E80023FD2EC02091E80022FDEACF209182
:10462000E80020FFE2CF3091F3002091F2000097E4
:1046300019F02830310558F041E02830310509F0F3
:1046400040E02091E8002E772093E800CECF4491FF
:104650004093F100319601972F5F3F4FE8CF809153
:104660008402882341F0853041F08091E80083FF87
:10467000C0CF81E0089582E0089583E00895982FE7
:10468000973028F08F708093E90081E0089590932F
:10469000E900242F762F50E0981731F07091EC004C
:1046A0002091ED005091F00021FD02C09F5FE8CF06
:1046B0003091EB003E7F3093EB003091ED003D7F79
:1046C0003093ED003091EB0031603093EB0070934C
:1046D000EC002093ED005093F0002091EE0027FDB8
:1046E000E5CF80E008958091850287FF13C0809117
:1046F000E80082FF06C08091E8008B778093E80095
:1047000004C0809184028111F2CF089580918402C7
:104710008823D9F38091E80080FFF8CF8091E800EA
:104720008E77ECCF2091E4003091E50095E6A90169
:104730002091EC00822F817020FF06C08091E8005C
:1047400080FF06C080E008952091E80022FD1AC095
:1047500080918402882389F0853089F08091EB0074
:1047600085FD0FC02091E4003091E500421753070A
:10477000F9F29150E1F684E0089582E0089583E033
:10478000089581E008950E9431240E943924E0EECA
:10479000F0E0808181608083E8EDF0E080818F77B8
:1047A000808319BCA7EDB0E08C918E7F8C938081C3
:1047B0008F7E80831092830208950F931F93CF936F
:1047C000DF930E9431240E943924C8EDD0E0888113
:1047D0008F77888388818068888388818F7D8883AC
:1047E00019BC1092840210928002109282021092E0
:1047F000810200EE10E0F80180818B7F8083888148
:104800008160888342E060E080E00E943F23E1EE27
:10481000F0E080818E7F8083E2EEF0E08081816035
:104820008083808188608083F80180818E7F80838F
:10483000888180618883DF91CF911F910F910895C6
:10484000E8EDF0E080818F7E8083E7EDF0E080810D
:104850008160808384E082BF81E0809383020C9436
:10486000DD23E8EDF0E080818E7F80831092E2000E
:1048700008951092DA001092E10008951F920F92AD
:104880000FB60F9211242F933F934F935F936F9323
:104890007F938F939F93AF93BF93EF93FF938091F9
:1048A000E10082FF0BC08091E20082FF07C080918F
:1048B000E1008B7F8093E1000E949F268091DA00C7
:1048C00080FF19C08091D80080FF15C08091DA0068
:1048D0008E7F8093DA008091D90080FF94C080E1C0
:1048E00089BD82E189BD09B400FEFDCF81E08093DE
:1048F00084020E94BE208091E10080FF19C0809157
:10490000E20080FF15C08091E2008E7F8093E2007C
:104910008091E20080618093E2008091D800806203
:104920008093D80019BC85E0809384020E94D02037
:104930008091E10084FF29C08091E20084FF25C0BE
:1049400080E189BD82E189BD09B400FEFDCF80917F
:10495000D8008F7D8093D8008091E1008F7E809376
:10496000E1008091E2008F7E8093E2008091E2007E
:1049700081608093E20080918002882309F449C01D
:1049800084E0809384020E94D1208091E10083FF23
:1049900029C08091E20083FF25C08091E100877FDC
:1049A0008093E10082E080938402109280028091E3
:1049B000E1008E7F8093E1008091E2008E7F809302
:1049C000E2008091E20080618093E20042E060E0DA
:1049D00080E00E943F238091F00088608093F00087
:1049E0000E94CF20FF91EF91BF91AF919F918F9146
:1049F0007F916F915F914F913F912F910F900FBEDB
:104A00000F901F90189519BC109284020E94CC2020
:104A100072CF8091E30087FD02C081E0B2CF83E0D6
:104A2000B0CF1F920F920FB60F9211242F933F9386
:104A30004F935F936F937F938F939F93AF93BF93A6
:104A4000CF93DF93EF93FF93D091E900DF708091D4
:104A5000EC00C82FC17080FDC0E81092E900809181
:104A6000F000877F8093F00078940E945525109283
:104A7000E9008091F00088608093F000CD2BCF702A
:104A8000C093E900FF91EF91DF91CF91BF91AF917A
:104A90009F918F917F916F915F914F913F912F9156
:104AA0000F900FBE0F901F9018951F93CF93DF9319
:104AB000CDB7DEB7AA970FB6F894DEBF0FBECDBF55
:104AC00085E892E0FC0101962091F100208322E02C
:104AD0008D389207B9F70E94E7208091E80083FFA4
:104AE00016C180918502909186029A3008F00FC11C
:104AF000E92FF0E0EC58F74D0C940028803881F055
:104B0000823809F004C1809189028F708093E90096
:104B10008091EB0085FB882780F91092E90006C0A0
:104B20008091810290918202911182609091E800BF
:104B3000977F9093E8008093F1001092F1008091AC
:104B4000E8008E77E0C0882309F4CEC0823009F0F7
:104B5000DEC0809187028111D1C0809189028F705F
:104B600009F4D5C08093E9002091EB0020FFC6C076
:104B7000933031F48091EB0080628093EB00BEC0F3
:104B80009091EB0090619093EB0021E030E001C048
:104B9000220F8A95EAF72093EA001092EA008091AA
:104BA000EB008860EACF8111B2C0109187021F77B5
:104BB0008091E3008078812B8093E3008091E8006E
:104BC000877F8093E8000E9473238091E80080FF34
:104BD000FCCF8091E30080688093E30082E01111B4
:104BE00083E08093840293C08058823008F08FC0A5
:104BF00080918702909188028C3D23E09207A1F575
:104C000083E08A838AE289834FB7F894DE011396A2
:104C100020E03EE051E2E32FF0E050935700E491B2
:104C200020FF03C0E295EF703F5FEF708E2F90E0A2
:104C3000EA30C0F0C7968D939D932F5F243159F7CA
:104C40004FBF8091E800877F8093E8006AE270E0C0
:104C5000CE0101960E948A228091E8008B77809392
:104C6000E80055C0C096E7CFAE014F5F5F4F60913F
:104C700089020E94CF21BC01892B09F448C0809190
:104C8000E800877F8093E80089819A810E94E4226E
:104C9000E3CF8038E1F58091E800877F8093E800DA
:104CA000809180028093F1004ACF811130C09091B1
:104CB0008702923060F58091E800877F8093E8005A
:104CC000909380020E94732380918002882311F0C8
:104CD00084E005C08091E30087FDFACF81E08093F6
:104CE00084020E94D32013C080918702813079F41E
:104CF00081E0933009F080E0809382021092E90015
:104D00008091E800877F8093E8000E947323809160
:104D1000E80083FF0AC08091E800877F8093E80065
:104D20008091EB0080628093EB00AA960FB6F89416
:104D3000DEBF0FBECDBFDF91CF911F9108950895C3
:104D4000CF93809184028823A1F0C091E900CF70B5
:104D50009091EC00892F817090FD80E8C82B109213
:104D6000E9008091E80083FD0E945525CF70C09333
:104D7000E900CF9108950E94C2266894B1110C9465
:104D8000512708950E94362788F09F5798F0B92F31
:104D90009927B751B0F0E1F0660F771F881F991F70
:104DA0001AF0BA95C9F714C0B13091F00E9450279B
:104DB000B1E008950C945027672F782F8827B85FAB
:104DC00039F0B93FCCF3869577956795B395D9F7C8
:104DD0003EF490958095709561957F4F8F4F9F4FD2
:104DE0000895E89409C097FB3EF4909580957095DE
:104DF00061957F4F8F4F9F4F9923A9F0F92F96E927
:104E0000BB279395F695879577956795B795F1119B
:104E1000F8CFFAF4BB0F11F460FF1BC06F5F7F4F38
:104E20008F4F9F4F16C0882311F096E911C077234A
:104E300021F09EE8872F762F05C0662371F096E853
:104E4000862F70E060E02AF09A95660F771F881F22
:104E5000DAF7880F9695879597F9089557FD90583A
:104E6000440F551F59F05F3F71F04795880F97FB2E
:104E7000991F61F09F3F79F08795089512161306E8
:104E80001406551FF2CF4695F1DF08C01616170617
:104E90001806991FF1CF869571056105089408954C
:104EA000E894BB2766277727CB0197F908950E94DE
:104EB0006A270C94DB270E94CD2738F00E94D42764
:104EC00020F0952311F00C94C4270C94CA271124C8
:104ED0000C9451270E942E2770F3959FC1F3950FD4
:104EE00050E0551F629FF001729FBB27F00DB11D6E
:104EF000639FAA27F00DB11DAA1F649F6627B00DFE
:104F0000A11D661F829F2227B00DA11D621F739FE6
:104F1000B00DA11D621F839FA00D611D221F749FF4
:104F20003327A00D611D231F849F600D211D822F3B
:104F3000762F6A2F11249F5750409AF0F1F0882362
:104F40004AF0EE0FFF1FBB1F661F771F881F91508F
:104F50005040A9F79E3F510580F00C94C4270C9453
:104F600051275F3FE4F3983ED4F386957795679594
:104F7000B795F795E7959F5FC1F7FE2B880F911DB9
:104F80009695879597F9089597F99F6780E870E05F
:104F900060E008959FEF80EC089500240A941616AF
:104FA000170618060906089500240A941216130617
:104FB000140605060895092E0394000C11F48823A5
:104FC00052F0BB0F40F4BF2B11F460FF04C06F5FC1
:104FD0007F4F8F4F9F4F089597FB072E16F4009435
:104FE00007D077FD09D00E94062807FC05D03EF4C3
:104FF000909581959F4F0895709561957F4F089585
:10500000EE0FFF1F0590F491E02D0994AA1BBB1B26
:1050100051E107C0AA1FBB1FA617B70710F0A61BB8
:10502000B70B881F991F5A95A9F780959095BC01D9
:10503000CD010895F999FECF92BD81BDF89A9927C7
:1050400080B50895A8E1B0E042E050E00C94422819
:10505000262FF999FECF92BD81BDF89A019700B431
:10506000021639F01FBA20BD0FB6F894FA9AF99AD1
:105070000FBE08950196272F0E9429280C942828F6
:10508000DC01CB01FC01F999FECF06C0F2BDE1BD08
:10509000F89A319600B40D9241505040B8F70895F7
:1050A000F894FFCF9E0AAA0AAE0AB20AB60ABA0A52
:1050B000BE0AC20AC60ACA0ACE0AD20AD60ADA0A40
:1050C000DE0AE20AE60AEA0A471147119F119F1118
:1050D000E311FF11771177110A127711D212D21250
:1050E0003D137711771146137E25A3258726A32527
:0C50F0008726D325F4258726492655265F
:1050FC002A022808140A321EDB1F6B2048201120BC
:10510C00DE1F0131323791669697343536F7F6F457
:10511C00F1F03033909293679594F5404D3639F712
:10512C0012AA1274123B12CE11E7110012191200BE
:00000001FF
